{"abi":[{"type":"constructor","inputs":[{"name":"initialOwner","type":"address","internalType":"address"},{"name":"_platformWallet","type":"address","internalType":"address payable"},{"name":"_platformFeePercentage","type":"uint256","internalType":"uint256"}],"stateMutability":"nonpayable"},{"type":"function","name":"assignWorkers","inputs":[{"name":"_taskId","type":"uint256","internalType":"uint256"},{"name":"_workers","type":"address[]","internalType":"address[]"}],"outputs":[],"stateMutability":"nonpayable"},{"type":"function","name":"cancelAndRefund","inputs":[{"name":"_taskId","type":"uint256","internalType":"uint256"}],"outputs":[],"stateMutability":"nonpayable"},{"type":"function","name":"completeTask","inputs":[{"name":"_taskId","type":"uint256","internalType":"uint256"}],"outputs":[],"stateMutability":"nonpayable"},{"type":"function","name":"createTask","inputs":[{"name":"_taskId","type":"uint256","internalType":"uint256"},{"name":"_creator","type":"address","internalType":"address"},{"name":"_payoutPerWorker","type":"uint256","internalType":"uint256"},{"name":"_requiredWorkers","type":"uint256","internalType":"uint256"}],"outputs":[],"stateMutability":"nonpayable"},{"type":"function","name":"fundTask","inputs":[{"name":"_taskId","type":"uint256","internalType":"uint256"}],"outputs":[],"stateMutability":"payable"},{"type":"function","name":"getAssignedWorkers","inputs":[{"name":"_taskId","type":"uint256","internalType":"uint256"}],"outputs":[{"name":"","type":"address[]","internalType":"address[]"}],"stateMutability":"view"},{"type":"function","name":"getContractBalance","inputs":[],"outputs":[{"name":"","type":"uint256","internalType":"uint256"}],"stateMutability":"view"},{"type":"function","name":"getIsAssignedWorker","inputs":[{"name":"_taskId","type":"uint256","internalType":"uint256"},{"name":"_worker","type":"address","internalType":"address"}],"outputs":[{"name":"","type":"bool","internalType":"bool"}],"stateMutability":"view"},{"type":"function","name":"getRemainingPayoutAmount","inputs":[{"name":"_taskId","type":"uint256","internalType":"uint256"}],"outputs":[{"name":"","type":"uint256","internalType":"uint256"}],"stateMutability":"view"},{"type":"function","name":"getTask","inputs":[{"name":"_taskId","type":"uint256","internalType":"uint256"}],"outputs":[{"name":"creator","type":"address","internalType":"address"},{"name":"payout","type":"uint256","internalType":"uint256"},{"name":"fee","type":"uint256","internalType":"uint256"},{"name":"status","type":"uint8","internalType":"enum TaskEscrow.Status"},{"name":"requiredWorkers","type":"uint256","internalType":"uint256"}],"stateMutability":"view"},{"type":"function","name":"getTaskExists","inputs":[{"name":"_taskId","type":"uint256","internalType":"uint256"}],"outputs":[{"name":"","type":"bool","internalType":"bool"}],"stateMutability":"view"},{"type":"function","name":"getTaskStatus","inputs":[{"name":"_taskId","type":"uint256","internalType":"uint256"}],"outputs":[{"name":"","type":"uint8","internalType":"enum TaskEscrow.Status"}],"stateMutability":"view"},{"type":"function","name":"isAssignedWorker","inputs":[{"name":"","type":"uint256","internalType":"uint256"},{"name":"","type":"address","internalType":"address"}],"outputs":[{"name":"","type":"bool","internalType":"bool"}],"stateMutability":"view"},{"type":"function","name":"owner","inputs":[],"outputs":[{"name":"","type":"address","internalType":"address"}],"stateMutability":"view"},{"type":"function","name":"platformFeePercentage","inputs":[],"outputs":[{"name":"","type":"uint256","internalType":"uint256"}],"stateMutability":"view"},{"type":"function","name":"platformWallet","inputs":[],"outputs":[{"name":"","type":"address","internalType":"address payable"}],"stateMutability":"view"},{"type":"function","name":"releaseBatchPayouts","inputs":[{"name":"_taskId","type":"uint256","internalType":"uint256"},{"name":"_workers","type":"address[]","internalType":"address[]"}],"outputs":[],"stateMutability":"nonpayable"},{"type":"function","name":"releasePayout","inputs":[{"name":"_taskId","type":"uint256","internalType":"uint256"},{"name":"_worker","type":"address","internalType":"address payable"}],"outputs":[],"stateMutability":"nonpayable"},{"type":"function","name":"renounceOwnership","inputs":[],"outputs":[],"stateMutability":"nonpayable"},{"type":"function","name":"setPlatformFee","inputs":[{"name":"_newFeePercentage","type":"uint256","internalType":"uint256"}],"outputs":[],"stateMutability":"nonpayable"},{"type":"function","name":"setPlatformWallet","inputs":[{"name":"_newWallet","type":"address","internalType":"address payable"}],"outputs":[],"stateMutability":"nonpayable"},{"type":"function","name":"transferOwnership","inputs":[{"name":"newOwner","type":"address","internalType":"address"}],"outputs":[],"stateMutability":"nonpayable"},{"type":"event","name":"BatchPayoutReleased","inputs":[{"name":"taskId","type":"uint256","indexed":true,"internalType":"uint256"},{"name":"totalAmount","type":"uint256","indexed":false,"internalType":"uint256"},{"name":"workerCount","type":"uint256","indexed":false,"internalType":"uint256"}],"anonymous":false},{"type":"event","name":"OwnershipTransferred","inputs":[{"name":"previousOwner","type":"address","indexed":true,"internalType":"address"},{"name":"newOwner","type":"address","indexed":true,"internalType":"address"}],"anonymous":false},{"type":"event","name":"PayoutReleased","inputs":[{"name":"taskId","type":"uint256","indexed":true,"internalType":"uint256"},{"name":"worker","type":"address","indexed":true,"internalType":"address"},{"name":"amount","type":"uint256","indexed":false,"internalType":"uint256"}],"anonymous":false},{"type":"event","name":"PlatformFeePaid","inputs":[{"name":"taskId","type":"uint256","indexed":true,"internalType":"uint256"},{"name":"amount","type":"uint256","indexed":false,"internalType":"uint256"}],"anonymous":false},{"type":"event","name":"PlatformFeeUpdated","inputs":[{"name":"newFeePercentage","type":"uint256","indexed":false,"internalType":"uint256"}],"anonymous":false},{"type":"event","name":"PlatformWalletUpdated","inputs":[{"name":"newWallet","type":"address","indexed":true,"internalType":"address"}],"anonymous":false},{"type":"event","name":"RefundIssued","inputs":[{"name":"taskId","type":"uint256","indexed":true,"internalType":"uint256"},{"name":"creator","type":"address","indexed":true,"internalType":"address"},{"name":"amount","type":"uint256","indexed":false,"internalType":"uint256"}],"anonymous":false},{"type":"event","name":"TaskCancelled","inputs":[{"name":"taskId","type":"uint256","indexed":true,"internalType":"uint256"}],"anonymous":false},{"type":"event","name":"TaskCreated","inputs":[{"name":"taskId","type":"uint256","indexed":true,"internalType":"uint256"},{"name":"creator","type":"address","indexed":true,"internalType":"address"},{"name":"payoutPerWorker","type":"uint256","indexed":false,"internalType":"uint256"},{"name":"requiredWorkers","type":"uint256","indexed":false,"internalType":"uint256"}],"anonymous":false},{"type":"event","name":"TaskFunded","inputs":[{"name":"taskId","type":"uint256","indexed":true,"internalType":"uint256"},{"name":"creator","type":"address","indexed":true,"internalType":"address"},{"name":"totalAmount","type":"uint256","indexed":false,"internalType":"uint256"}],"anonymous":false},{"type":"error","name":"IncorrectFundingAmount","inputs":[{"name":"expected","type":"uint256","internalType":"uint256"},{"name":"actual","type":"uint256","internalType":"uint256"}]},{"type":"error","name":"InvalidPlatformWallet","inputs":[]},{"type":"error","name":"InvalidTaskParameters","inputs":[]},{"type":"error","name":"OwnableInvalidOwner","inputs":[{"name":"owner","type":"address","internalType":"address"}]},{"type":"error","name":"OwnableUnauthorizedAccount","inputs":[{"name":"account","type":"address","internalType":"address"}]},{"type":"error","name":"ReentrancyGuardReentrantCall","inputs":[]},{"type":"error","name":"TaskAlreadyExists","inputs":[{"name":"taskId","type":"uint256","internalType":"uint256"}]},{"type":"error","name":"TaskNotCompleted","inputs":[{"name":"taskId","type":"uint256","internalType":"uint256"},{"name":"currentStatus","type":"uint8","internalType":"enum TaskEscrow.Status"}]},{"type":"error","name":"TaskNotInCreatedState","inputs":[{"name":"taskId","type":"uint256","internalType":"uint256"},{"name":"currentStatus","type":"uint8","internalType":"enum TaskEscrow.Status"}]},{"type":"error","name":"TaskNotInFundedState","inputs":[{"name":"taskId","type":"uint256","internalType":"uint256"},{"name":"currentStatus","type":"uint8","internalType":"enum TaskEscrow.Status"}]},{"type":"error","name":"WorkerNotAssigned","inputs":[{"name":"taskId","type":"uint256","internalType":"uint256"},{"name":"worker","type":"address","internalType":"address"}]}],"bytecode":{"object":"0x608060405234801561000f575f5ffd5b50604051612c3c380380612c3c83398181016040528101906100319190610349565b825f73ffffffffffffffffffffffffffffffffffffffff168173ffffffffffffffffffffffffffffffffffffffff16036100a2575f6040517f1e4fbdf700000000000000000000000000000000000000000000000000000000815260040161009991906103a8565b60405180910390fd5b6100b18161018a60201b60201c565b5060016100d06100c561024b60201b60201c565b61027460201b60201c565b5f01819055505f73ffffffffffffffffffffffffffffffffffffffff168273ffffffffffffffffffffffffffffffffffffffff160361013b576040517f87ac4dbf00000000000000000000000000000000000000000000000000000000815260040160405180910390fd5b8160015f6101000a81548173ffffffffffffffffffffffffffffffffffffffff021916908373ffffffffffffffffffffffffffffffffffffffff160217905550806002819055505050506103c1565b5f5f5f9054906101000a900473ffffffffffffffffffffffffffffffffffffffff169050815f5f6101000a81548173ffffffffffffffffffffffffffffffffffffffff021916908373ffffffffffffffffffffffffffffffffffffffff1602179055508173ffffffffffffffffffffffffffffffffffffffff168173ffffffffffffffffffffffffffffffffffffffff167f8be0079c531659141344cd1fd0a4f28419497f9722a3daafe3b4186f6b6457e060405160405180910390a35050565b5f7f9b779b17422d0df92223018b32b4d1fa46e071723d6817e2486d003becc55f005f1b905090565b5f819050919050565b5f5ffd5b5f73ffffffffffffffffffffffffffffffffffffffff82169050919050565b5f6102aa82610281565b9050919050565b6102ba816102a0565b81146102c4575f5ffd5b50565b5f815190506102d5816102b1565b92915050565b5f6102e582610281565b9050919050565b6102f5816102db565b81146102ff575f5ffd5b50565b5f81519050610310816102ec565b92915050565b5f819050919050565b61032881610316565b8114610332575f5ffd5b50565b5f815190506103438161031f565b92915050565b5f5f5f606084860312156103605761035f61027d565b5b5f61036d868287016102c7565b935050602061037e86828701610302565b925050604061038f86828701610335565b9150509250925092565b6103a2816102a0565b82525050565b5f6020820190506103bb5f830184610399565b92915050565b61286e806103ce5f395ff3fe608060405260043610610134575f3560e01c80638da5cb5b116100aa578063d1ff21c21161006e578063d1ff21c214610428578063d32bfb6c14610444578063e001cc851461046c578063e1e29558146104a8578063f2fde38b146104d0578063fa2af9da146104f857610134565b80638da5cb5b14610334578063c8cfd6b21461035e578063cdd78cfc14610386578063cfcb1c55146103b0578063d1bdd65d146103ec57610134565b80632d9ce6a0116100fc5780632d9ce6a01461022c5780635290900b146102545780636f9fb98a14610290578063715018a6146102ba578063732b399b146102d05780638831e9cf1461030c57610134565b806302b43b671461013857806312e8e2c3146101605780631d65e77e14610188578063253553f3146101c85780632ae0431014610204575b5f5ffd5b348015610143575f5ffd5b5061015e60048036038101906101599190611f53565b610522565b005b34801561016b575f5ffd5b5061018660048036038101906101819190611fb0565b6107f4565b005b348015610193575f5ffd5b506101ae60048036038101906101a99190611fb0565b61083d565b6040516101bf95949392919061209c565b60405180910390f35b3480156101d3575f5ffd5b506101ee60048036038101906101e99190611fb0565b6108bd565b6040516101fb91906121a4565b60405180910390f35b34801561020f575f5ffd5b5061022a600480360381019061022591906121ff565b610959565b005b348015610237575f5ffd5b50610252600480360381019061024d9190612267565b610c14565b005b34801561025f575f5ffd5b5061027a60048036038101906102759190611fb0565b610e07565b60405161028791906122cb565b60405180910390f35b34801561029b575f5ffd5b506102a4610e30565b6040516102b191906122e4565b60405180910390f35b3480156102c5575f5ffd5b506102ce610e37565b005b3480156102db575f5ffd5b506102f660048036038101906102f191906122fd565b610e4a565b6040516103039190612355565b60405180910390f35b348015610317575f5ffd5b50610332600480360381019061032d919061236e565b610eac565b005b34801561033f575f5ffd5b50610348610f9f565b6040516103559190612399565b60405180910390f35b348015610369575f5ffd5b50610384600480360381019061037f9190611f53565b610fc6565b005b348015610391575f5ffd5b5061039a6111ee565b6040516103a791906122e4565b60405180910390f35b3480156103bb575f5ffd5b506103d660048036038101906103d19190611fb0565b6111f4565b6040516103e391906122e4565b60405180910390f35b3480156103f7575f5ffd5b50610412600480360381019061040d91906122fd565b61130b565b60405161041f9190612355565b60405180910390f35b610442600480360381019061043d9190611fb0565b611335565b005b34801561044f575f5ffd5b5061046a60048036038101906104659190611fb0565b61161b565b005b348015610477575f5ffd5b50610492600480360381019061048d9190611fb0565b61189a565b60405161049f9190612355565b60405180910390f35b3480156104b3575f5ffd5b506104ce60048036038101906104c99190611fb0565b6118c0565b005b3480156104db575f5ffd5b506104f660048036038101906104f191906123b2565b611bf4565b005b348015610503575f5ffd5b5061050c611c78565b60405161051991906123ec565b60405180910390f35b61052a611c9d565b610532611d24565b5f60035f8581526020019081526020015f2090506001600381111561055a57610559612029565b5b816003015f9054906101000a900460ff16600381111561057d5761057c612029565b5b146105d15783816003015f9054906101000a900460ff166040517f87059e120000000000000000000000000000000000000000000000000000000081526004016105c8929190612405565b60405180910390fd5b5f815f015490505f5f90505f5f90505b8585905081101561079e575f868683818110610600576105ff61242c565b5b905060200201602081019061061591906123b2565b905060045f8981526020019081526020015f205f8273ffffffffffffffffffffffffffffffffffffffff1673ffffffffffffffffffffffffffffffffffffffff1681526020019081526020015f205f9054906101000a900460ff1615610790575f60045f8a81526020019081526020015f205f8373ffffffffffffffffffffffffffffffffffffffff1673ffffffffffffffffffffffffffffffffffffffff1681526020019081526020015f205f6101000a81548160ff0219169083151502179055505f8173ffffffffffffffffffffffffffffffffffffffff16856040516106fd90612486565b5f6040518083038185875af1925050503d805f8114610737576040519150601f19603f3d011682016040523d82523d5f602084013e61073c565b606091505b5050905080610780576040517f08c379a0000000000000000000000000000000000000000000000000000000008152600401610777906124f4565b60405180910390fd5b838061078b9061253f565b945050505b5080806001019150506105e1565b50857f45a604035a4eb63d9098ccffc6a8328434187d34e185954886e43d6343ef4b3b82846107cd9190612586565b836040516107dc9291906125c7565b60405180910390a25050506107ef611d46565b505050565b6107fc611c9d565b806002819055507f45610d581145924dd7090a5017e5f2b1d6f42213bb2e95707ff86846bbfcb1ca8160405161083291906122e4565b60405180910390a150565b5f5f5f5f5f5f60035f8881526020019081526020015f2090508060030160019054906101000a900473ffffffffffffffffffffffffffffffffffffffff168160010154825f015461088e9190612586565b8260020154836003015f9054906101000a900460ff168460010154955095509550955095505091939590929450565b606060055f8381526020019081526020015f2080548060200260200160405190810160405280929190818152602001828054801561094d57602002820191905f5260205f20905b815f9054906101000a900473ffffffffffffffffffffffffffffffffffffffff1673ffffffffffffffffffffffffffffffffffffffff1681526020019060010190808311610904575b50505050509050919050565b610961611c9d565b610969611d24565b5f60035f8481526020019081526020015f2090506001600381111561099157610990612029565b5b816003015f9054906101000a900460ff1660038111156109b4576109b3612029565b5b14610a085782816003015f9054906101000a900460ff166040517f87059e120000000000000000000000000000000000000000000000000000000081526004016109ff929190612405565b60405180910390fd5b60045f8481526020019081526020015f205f8373ffffffffffffffffffffffffffffffffffffffff1673ffffffffffffffffffffffffffffffffffffffff1681526020019081526020015f205f9054906101000a900460ff16610aa45782826040517f2a0150c5000000000000000000000000000000000000000000000000000000008152600401610a9b929190612649565b60405180910390fd5b5f60045f8581526020019081526020015f205f8473ffffffffffffffffffffffffffffffffffffffff1673ffffffffffffffffffffffffffffffffffffffff1681526020019081526020015f205f6101000a81548160ff0219169083151502179055505f815f015490505f8373ffffffffffffffffffffffffffffffffffffffff1682604051610b3390612486565b5f6040518083038185875af1925050503d805f8114610b6d576040519150601f19603f3d011682016040523d82523d5f602084013e610b72565b606091505b5050905080610bb6576040517f08c379a0000000000000000000000000000000000000000000000000000000008152600401610bad906124f4565b60405180910390fd5b8373ffffffffffffffffffffffffffffffffffffffff16857f5621778ab13fbf7130d91ae5035a140b79a6cfd120059c2ea0fec2a5ce6731a684604051610bfd91906122e4565b60405180910390a3505050610c10611d46565b5050565b610c1c611c9d565b60065f8581526020019081526020015f205f9054906101000a900460ff1615610c7c57836040517ffabb347d000000000000000000000000000000000000000000000000000000008152600401610c7391906122e4565b60405180910390fd5b5f821480610c8957505f81145b15610cc0576040517f6a25d8b000000000000000000000000000000000000000000000000000000000815260040160405180910390fd5b5f60035f8681526020019081526020015f20905082815f0181905550818160010181905550838160030160016101000a81548173ffffffffffffffffffffffffffffffffffffffff021916908373ffffffffffffffffffffffffffffffffffffffff1602179055505f8284610d359190612586565b905061271060025482610d489190612586565b610d52919061269d565b82600201819055505f826003015f6101000a81548160ff02191690836003811115610d8057610d7f612029565b5b0217905550600160065f8881526020019081526020015f205f6101000a81548160ff0219169083151502179055508473ffffffffffffffffffffffffffffffffffffffff16867ff5ac772f880dc6ed6b50db24e062bbc51818e270ed47533fd9162e5255fa29138686604051610df79291906125c7565b60405180910390a3505050505050565b5f60035f8381526020019081526020015f206003015f9054906101000a900460ff169050919050565b5f47905090565b610e3f611c9d565b610e485f611d60565b565b5f60045f8481526020019081526020015f205f8373ffffffffffffffffffffffffffffffffffffffff1673ffffffffffffffffffffffffffffffffffffffff1681526020019081526020015f205f9054906101000a900460ff16905092915050565b610eb4611c9d565b5f73ffffffffffffffffffffffffffffffffffffffff168173ffffffffffffffffffffffffffffffffffffffff1603610f19576040517f87ac4dbf00000000000000000000000000000000000000000000000000000000815260040160405180910390fd5b8060015f6101000a81548173ffffffffffffffffffffffffffffffffffffffff021916908373ffffffffffffffffffffffffffffffffffffffff1602179055508073ffffffffffffffffffffffffffffffffffffffff167f73238e3ae0a71b401b31ae67204506d074de41bd5c084082fba9b64b1c7fa28f60405160405180910390a250565b5f5f5f9054906101000a900473ffffffffffffffffffffffffffffffffffffffff16905090565b610fce611c9d565b5f60035f8581526020019081526020015f20905060016003811115610ff657610ff5612029565b5b816003015f9054906101000a900460ff16600381111561101957611018612029565b5b1461106d5783816003015f9054906101000a900460ff166040517f87059e12000000000000000000000000000000000000000000000000000000008152600401611064929190612405565b60405180910390fd5b5f5f90505b838390508110156111e7575f8484838181106110915761109061242c565b5b90506020020160208101906110a691906123b2565b905060045f8781526020019081526020015f205f8273ffffffffffffffffffffffffffffffffffffffff1673ffffffffffffffffffffffffffffffffffffffff1681526020019081526020015f205f9054906101000a900460ff166111d957600160045f8881526020019081526020015f205f8373ffffffffffffffffffffffffffffffffffffffff1673ffffffffffffffffffffffffffffffffffffffff1681526020019081526020015f205f6101000a81548160ff02191690831515021790555060055f8781526020019081526020015f2081908060018154018082558091505060019003905f5260205f20015f9091909190916101000a81548173ffffffffffffffffffffffffffffffffffffffff021916908373ffffffffffffffffffffffffffffffffffffffff1602179055505b508080600101915050611072565b5050505050565b60025481565b5f5f60035f8481526020019081526020015f2090505f5f90505f5f90505b60055f8681526020019081526020015f20805490508110156112f25760045f8681526020019081526020015f205f60055f8881526020019081526020015f2083815481106112635761126261242c565b5b905f5260205f20015f9054906101000a900473ffffffffffffffffffffffffffffffffffffffff1673ffffffffffffffffffffffffffffffffffffffff1673ffffffffffffffffffffffffffffffffffffffff1681526020019081526020015f205f9054906101000a900460ff16156112e55781806112e19061253f565b9250505b8080600101915050611212565b5080825f01546113029190612586565b92505050919050565b6004602052815f5260405f20602052805f5260405f205f915091509054906101000a900460ff1681565b5f60035f8381526020019081526020015f20905060065f8381526020019081526020015f205f9054906101000a900460ff166113aa57815f6040517fb96efdb30000000000000000000000000000000000000000000000000000000081526004016113a1929190612405565b60405180910390fd5b5f60038111156113bd576113bc612029565b5b816003015f9054906101000a900460ff1660038111156113e0576113df612029565b5b146114345781816003015f9054906101000a900460ff166040517fb96efdb300000000000000000000000000000000000000000000000000000000815260040161142b929190612405565b60405180910390fd5b8060030160019054906101000a900473ffffffffffffffffffffffffffffffffffffffff1673ffffffffffffffffffffffffffffffffffffffff163373ffffffffffffffffffffffffffffffffffffffff16141580156114c75750611497610f9f565b73ffffffffffffffffffffffffffffffffffffffff163373ffffffffffffffffffffffffffffffffffffffff1614155b15611507576040517f08c379a00000000000000000000000000000000000000000000000000000000081526004016114fe90612717565b60405180910390fd5b5f8160010154825f015461151b9190612586565b90505f82600201548261152e9190612735565b90508034146115765780346040517f3673c7ef00000000000000000000000000000000000000000000000000000000815260040161156d9291906125c7565b60405180910390fd5b6001836003015f6101000a81548160ff0219169083600381111561159d5761159c612029565b5b02179055508260030160019054906101000a900473ffffffffffffffffffffffffffffffffffffffff1673ffffffffffffffffffffffffffffffffffffffff16847f9c49807a23f4d5f56e8d93c1add31e749bd0cdf1025eefe36f906ba31c0dfc683460405161160d91906122e4565b60405180910390a350505050565b611623611c9d565b61162b611d24565b5f60035f8381526020019081526020015f2090506001600381111561165357611652612029565b5b816003015f9054906101000a900460ff16600381111561167657611675612029565b5b146116ca5781816003015f9054906101000a900460ff166040517f87059e120000000000000000000000000000000000000000000000000000000081526004016116c1929190612405565b60405180910390fd5b6003816003015f6101000a81548160ff021916908360038111156116f1576116f0612029565b5b02179055505f8160010154825f015461170a9190612586565b90505f82600201548261171d9190612735565b90505f8360030160019054906101000a900473ffffffffffffffffffffffffffffffffffffffff1673ffffffffffffffffffffffffffffffffffffffff168260405161176890612486565b5f6040518083038185875af1925050503d805f81146117a2576040519150601f19603f3d011682016040523d82523d5f602084013e6117a7565b606091505b50509050806117eb576040517f08c379a00000000000000000000000000000000000000000000000000000000081526004016117e2906127b2565b60405180910390fd5b847fc6eacc3aa5b2aa77b5a826b832a804ca0b71830ec74f9aa57a15edd978c31ed660405160405180910390a28360030160019054906101000a900473ffffffffffffffffffffffffffffffffffffffff1673ffffffffffffffffffffffffffffffffffffffff16857f7a482fdeb6bc9a1376f597068a214a7a39472bb2eff1b8cad21ba04f49ddca1b8460405161188391906122e4565b60405180910390a350505050611897611d46565b50565b5f60065f8381526020019081526020015f205f9054906101000a900460ff169050919050565b6118c8611c9d565b6118d0611d24565b5f60035f8381526020019081526020015f209050600160038111156118f8576118f7612029565b5b816003015f9054906101000a900460ff16600381111561191b5761191a612029565b5b1461196f5781816003015f9054906101000a900460ff166040517f87059e12000000000000000000000000000000000000000000000000000000008152600401611966929190612405565b60405180910390fd5b5f5f90505f5f90505b60055f8581526020019081526020015f2080549050811015611a585760045f8581526020019081526020015f205f60055f8781526020019081526020015f2083815481106119c9576119c861242c565b5b905f5260205f20015f9054906101000a900473ffffffffffffffffffffffffffffffffffffffff1673ffffffffffffffffffffffffffffffffffffffff1673ffffffffffffffffffffffffffffffffffffffff1681526020019081526020015f205f9054906101000a900460ff1615611a4b578180611a479061253f565b9250505b8080600101915050611978565b505f811115611ab05782826003015f9054906101000a900460ff166040517fa44404dd000000000000000000000000000000000000000000000000000000008152600401611aa7929190612405565b60405180910390fd5b6002826003015f6101000a81548160ff02191690836003811115611ad757611ad6612029565b5b02179055505f826002015490505f60015f9054906101000a900473ffffffffffffffffffffffffffffffffffffffff1673ffffffffffffffffffffffffffffffffffffffff1682604051611b2a90612486565b5f6040518083038185875af1925050503d805f8114611b64576040519150601f19603f3d011682016040523d82523d5f602084013e611b69565b606091505b5050905080611bad576040517f08c379a0000000000000000000000000000000000000000000000000000000008152600401611ba49061281a565b60405180910390fd5b847f93e7aaa64db1f3164fb844c7465be63c3d09a211e1307c3fe2a96a3f585d441583604051611bdd91906122e4565b60405180910390a250505050611bf1611d46565b50565b611bfc611c9d565b5f73ffffffffffffffffffffffffffffffffffffffff168173ffffffffffffffffffffffffffffffffffffffff1603611c6c575f6040517f1e4fbdf7000000000000000000000000000000000000000000000000000000008152600401611c639190612399565b60405180910390fd5b611c7581611d60565b50565b60015f9054906101000a900473ffffffffffffffffffffffffffffffffffffffff1681565b611ca5611e21565b73ffffffffffffffffffffffffffffffffffffffff16611cc3610f9f565b73ffffffffffffffffffffffffffffffffffffffff1614611d2257611ce6611e21565b6040517f118cdaa7000000000000000000000000000000000000000000000000000000008152600401611d199190612399565b60405180910390fd5b565b611d2c611e28565b6002611d3e611d39611e69565b611e92565b5f0181905550565b6001611d58611d53611e69565b611e92565b5f0181905550565b5f5f5f9054906101000a900473ffffffffffffffffffffffffffffffffffffffff169050815f5f6101000a81548173ffffffffffffffffffffffffffffffffffffffff021916908373ffffffffffffffffffffffffffffffffffffffff1602179055508173ffffffffffffffffffffffffffffffffffffffff168173ffffffffffffffffffffffffffffffffffffffff167f8be0079c531659141344cd1fd0a4f28419497f9722a3daafe3b4186f6b6457e060405160405180910390a35050565b5f33905090565b611e30611e9b565b15611e67576040517f3ee5aeb500000000000000000000000000000000000000000000000000000000815260040160405180910390fd5b565b5f7f9b779b17422d0df92223018b32b4d1fa46e071723d6817e2486d003becc55f005f1b905090565b5f819050919050565b5f6002611eae611ea9611e69565b611e92565b5f015414905090565b5f5ffd5b5f5ffd5b5f819050919050565b611ed181611ebf565b8114611edb575f5ffd5b50565b5f81359050611eec81611ec8565b92915050565b5f5ffd5b5f5ffd5b5f5ffd5b5f5f83601f840112611f1357611f12611ef2565b5b8235905067ffffffffffffffff811115611f3057611f2f611ef6565b5b602083019150836020820283011115611f4c57611f4b611efa565b5b9250929050565b5f5f5f60408486031215611f6a57611f69611eb7565b5b5f611f7786828701611ede565b935050602084013567ffffffffffffffff811115611f9857611f97611ebb565b5b611fa486828701611efe565b92509250509250925092565b5f60208284031215611fc557611fc4611eb7565b5b5f611fd284828501611ede565b91505092915050565b5f73ffffffffffffffffffffffffffffffffffffffff82169050919050565b5f61200482611fdb565b9050919050565b61201481611ffa565b82525050565b61202381611ebf565b82525050565b7f4e487b71000000000000000000000000000000000000000000000000000000005f52602160045260245ffd5b6004811061206757612066612029565b5b50565b5f81905061207782612056565b919050565b5f6120868261206a565b9050919050565b6120968161207c565b82525050565b5f60a0820190506120af5f83018861200b565b6120bc602083018761201a565b6120c9604083018661201a565b6120d6606083018561208d565b6120e3608083018461201a565b9695505050505050565b5f81519050919050565b5f82825260208201905092915050565b5f819050602082019050919050565b61211f81611ffa565b82525050565b5f6121308383612116565b60208301905092915050565b5f602082019050919050565b5f612152826120ed565b61215c81856120f7565b935061216783612107565b805f5b8381101561219757815161217e8882612125565b97506121898361213c565b92505060018101905061216a565b5085935050505092915050565b5f6020820190508181035f8301526121bc8184612148565b905092915050565b5f6121ce82611fdb565b9050919050565b6121de816121c4565b81146121e8575f5ffd5b50565b5f813590506121f9816121d5565b92915050565b5f5f6040838503121561221557612214611eb7565b5b5f61222285828601611ede565b9250506020612233858286016121eb565b9150509250929050565b61224681611ffa565b8114612250575f5ffd5b50565b5f813590506122618161223d565b92915050565b5f5f5f5f6080858703121561227f5761227e611eb7565b5b5f61228c87828801611ede565b945050602061229d87828801612253565b93505060406122ae87828801611ede565b92505060606122bf87828801611ede565b91505092959194509250565b5f6020820190506122de5f83018461208d565b92915050565b5f6020820190506122f75f83018461201a565b92915050565b5f5f6040838503121561231357612312611eb7565b5b5f61232085828601611ede565b925050602061233185828601612253565b9150509250929050565b5f8115159050919050565b61234f8161233b565b82525050565b5f6020820190506123685f830184612346565b92915050565b5f6020828403121561238357612382611eb7565b5b5f612390848285016121eb565b91505092915050565b5f6020820190506123ac5f83018461200b565b92915050565b5f602082840312156123c7576123c6611eb7565b5b5f6123d484828501612253565b91505092915050565b6123e6816121c4565b82525050565b5f6020820190506123ff5f8301846123dd565b92915050565b5f6040820190506124185f83018561201a565b612425602083018461208d565b9392505050565b7f4e487b71000000000000000000000000000000000000000000000000000000005f52603260045260245ffd5b5f81905092915050565b50565b5f6124715f83612459565b915061247c82612463565b5f82019050919050565b5f61249082612466565b9150819050919050565b5f82825260208201905092915050565b7f5472616e73666572206661696c656400000000000000000000000000000000005f82015250565b5f6124de600f8361249a565b91506124e9826124aa565b602082019050919050565b5f6020820190508181035f83015261250b816124d2565b9050919050565b7f4e487b71000000000000000000000000000000000000000000000000000000005f52601160045260245ffd5b5f61254982611ebf565b91507fffffffffffffffffffffffffffffffffffffffffffffffffffffffffffffffff820361257b5761257a612512565b5b600182019050919050565b5f61259082611ebf565b915061259b83611ebf565b92508282026125a981611ebf565b915082820484148315176125c0576125bf612512565b5b5092915050565b5f6040820190506125da5f83018561201a565b6125e7602083018461201a565b9392505050565b5f819050919050565b5f61261161260c61260784611fdb565b6125ee565b611fdb565b9050919050565b5f612622826125f7565b9050919050565b5f61263382612618565b9050919050565b61264381612629565b82525050565b5f60408201905061265c5f83018561201a565b612669602083018461263a565b9392505050565b7f4e487b71000000000000000000000000000000000000000000000000000000005f52601260045260245ffd5b5f6126a782611ebf565b91506126b283611ebf565b9250826126c2576126c1612670565b5b828204905092915050565b7f4f6e6c792063726561746f72206f72206f776e65722063616e2066756e6400005f82015250565b5f612701601e8361249a565b915061270c826126cd565b602082019050919050565b5f6020820190508181035f83015261272e816126f5565b9050919050565b5f61273f82611ebf565b915061274a83611ebf565b925082820190508082111561276257612761612512565b5b92915050565b7f526566756e64206661696c6564000000000000000000000000000000000000005f82015250565b5f61279c600d8361249a565b91506127a782612768565b602082019050919050565b5f6020820190508181035f8301526127c981612790565b9050919050565b7f506c6174666f726d20666565207472616e73666572206661696c6564000000005f82015250565b5f612804601c8361249a565b915061280f826127d0565b602082019050919050565b5f6020820190508181035f830152612831816127f8565b905091905056fea264697066735822122058b479d04d19a2c2280799f24ea1025ec1ab06ea19833434cad981d0c8d6e2c264736f6c634300081e0033","linkReferences":{}},"methodIdentifiers":{"assignWorkers(uint256,address[])":"c8cfd6b2","cancelAndRefund(uint256)":"d32bfb6c","completeTask(uint256)":"e1e29558","createTask(uint256,address,uint256,uint256)":"2d9ce6a0","fundTask(uint256)":"d1ff21c2","getAssignedWorkers(uint256)":"253553f3","getContractBalance()":"6f9fb98a","getIsAssignedWorker(uint256,address)":"732b399b","getRemainingPayoutAmount(uint256)":"cfcb1c55","getTask(uint256)":"1d65e77e","getTaskExists(uint256)":"e001cc85","getTaskStatus(uint256)":"5290900b","isAssignedWorker(uint256,address)":"d1bdd65d","owner()":"8da5cb5b","platformFeePercentage()":"cdd78cfc","platformWallet()":"fa2af9da","releaseBatchPayouts(uint256,address[])":"02b43b67","releasePayout(uint256,address)":"2ae04310","renounceOwnership()":"715018a6","setPlatformFee(uint256)":"12e8e2c3","setPlatformWallet(address)":"8831e9cf","transferOwnership(address)":"f2fde38b"},"id":23}